{
  "address": "0x88B7063107d2CF7FAC83E30b37c938fE42c56040",
  "abi": [
    {
      "inputs": [],
      "stateMutability": "nonpayable",
      "type": "constructor"
    },
    {
      "anonymous": false,
      "inputs": [
        {
          "indexed": true,
          "internalType": "address",
          "name": "account",
          "type": "address"
        },
        {
          "indexed": true,
          "internalType": "address",
          "name": "operator",
          "type": "address"
        },
        {
          "indexed": false,
          "internalType": "bool",
          "name": "approved",
          "type": "bool"
        }
      ],
      "name": "ApprovalForAll",
      "type": "event"
    },
    {
      "anonymous": false,
      "inputs": [
        {
          "indexed": true,
          "internalType": "address",
          "name": "previousOwner",
          "type": "address"
        },
        {
          "indexed": true,
          "internalType": "address",
          "name": "newOwner",
          "type": "address"
        }
      ],
      "name": "OwnershipTransferred",
      "type": "event"
    },
    {
      "anonymous": false,
      "inputs": [
        {
          "indexed": true,
          "internalType": "address",
          "name": "operator",
          "type": "address"
        },
        {
          "indexed": true,
          "internalType": "address",
          "name": "from",
          "type": "address"
        },
        {
          "indexed": true,
          "internalType": "address",
          "name": "to",
          "type": "address"
        },
        {
          "indexed": false,
          "internalType": "uint256[]",
          "name": "ids",
          "type": "uint256[]"
        },
        {
          "indexed": false,
          "internalType": "uint256[]",
          "name": "values",
          "type": "uint256[]"
        }
      ],
      "name": "TransferBatch",
      "type": "event"
    },
    {
      "anonymous": false,
      "inputs": [
        {
          "indexed": true,
          "internalType": "address",
          "name": "operator",
          "type": "address"
        },
        {
          "indexed": true,
          "internalType": "address",
          "name": "from",
          "type": "address"
        },
        {
          "indexed": true,
          "internalType": "address",
          "name": "to",
          "type": "address"
        },
        {
          "indexed": false,
          "internalType": "uint256",
          "name": "id",
          "type": "uint256"
        },
        {
          "indexed": false,
          "internalType": "uint256",
          "name": "value",
          "type": "uint256"
        }
      ],
      "name": "TransferSingle",
      "type": "event"
    },
    {
      "anonymous": false,
      "inputs": [
        {
          "indexed": false,
          "internalType": "string",
          "name": "value",
          "type": "string"
        },
        {
          "indexed": true,
          "internalType": "uint256",
          "name": "id",
          "type": "uint256"
        }
      ],
      "name": "URI",
      "type": "event"
    },
    {
      "inputs": [],
      "name": "MAX_TOKEN",
      "outputs": [
        {
          "internalType": "uint256",
          "name": "",
          "type": "uint256"
        }
      ],
      "stateMutability": "view",
      "type": "function"
    },
    {
      "inputs": [
        {
          "internalType": "address[]",
          "name": "_to",
          "type": "address[]"
        }
      ],
      "name": "airdrop",
      "outputs": [],
      "stateMutability": "nonpayable",
      "type": "function"
    },
    {
      "inputs": [
        {
          "internalType": "address",
          "name": "account",
          "type": "address"
        },
        {
          "internalType": "uint256",
          "name": "id",
          "type": "uint256"
        }
      ],
      "name": "balanceOf",
      "outputs": [
        {
          "internalType": "uint256",
          "name": "",
          "type": "uint256"
        }
      ],
      "stateMutability": "view",
      "type": "function"
    },
    {
      "inputs": [
        {
          "internalType": "address[]",
          "name": "accounts",
          "type": "address[]"
        },
        {
          "internalType": "uint256[]",
          "name": "ids",
          "type": "uint256[]"
        }
      ],
      "name": "balanceOfBatch",
      "outputs": [
        {
          "internalType": "uint256[]",
          "name": "",
          "type": "uint256[]"
        }
      ],
      "stateMutability": "view",
      "type": "function"
    },
    {
      "inputs": [
        {
          "internalType": "address",
          "name": "account",
          "type": "address"
        },
        {
          "internalType": "address",
          "name": "operator",
          "type": "address"
        }
      ],
      "name": "isApprovedForAll",
      "outputs": [
        {
          "internalType": "bool",
          "name": "",
          "type": "bool"
        }
      ],
      "stateMutability": "view",
      "type": "function"
    },
    {
      "inputs": [],
      "name": "name",
      "outputs": [
        {
          "internalType": "string",
          "name": "",
          "type": "string"
        }
      ],
      "stateMutability": "view",
      "type": "function"
    },
    {
      "inputs": [],
      "name": "owner",
      "outputs": [
        {
          "internalType": "address",
          "name": "",
          "type": "address"
        }
      ],
      "stateMutability": "view",
      "type": "function"
    },
    {
      "inputs": [],
      "name": "renounceOwnership",
      "outputs": [],
      "stateMutability": "nonpayable",
      "type": "function"
    },
    {
      "inputs": [
        {
          "internalType": "address",
          "name": "from",
          "type": "address"
        },
        {
          "internalType": "address",
          "name": "to",
          "type": "address"
        },
        {
          "internalType": "uint256[]",
          "name": "ids",
          "type": "uint256[]"
        },
        {
          "internalType": "uint256[]",
          "name": "amounts",
          "type": "uint256[]"
        },
        {
          "internalType": "bytes",
          "name": "data",
          "type": "bytes"
        }
      ],
      "name": "safeBatchTransferFrom",
      "outputs": [],
      "stateMutability": "nonpayable",
      "type": "function"
    },
    {
      "inputs": [
        {
          "internalType": "address",
          "name": "from",
          "type": "address"
        },
        {
          "internalType": "address",
          "name": "to",
          "type": "address"
        },
        {
          "internalType": "uint256",
          "name": "id",
          "type": "uint256"
        },
        {
          "internalType": "uint256",
          "name": "amount",
          "type": "uint256"
        },
        {
          "internalType": "bytes",
          "name": "data",
          "type": "bytes"
        }
      ],
      "name": "safeTransferFrom",
      "outputs": [],
      "stateMutability": "nonpayable",
      "type": "function"
    },
    {
      "inputs": [
        {
          "internalType": "address",
          "name": "operator",
          "type": "address"
        },
        {
          "internalType": "bool",
          "name": "approved",
          "type": "bool"
        }
      ],
      "name": "setApprovalForAll",
      "outputs": [],
      "stateMutability": "nonpayable",
      "type": "function"
    },
    {
      "inputs": [
        {
          "internalType": "string",
          "name": "baseURI",
          "type": "string"
        }
      ],
      "name": "setBaseURI",
      "outputs": [],
      "stateMutability": "nonpayable",
      "type": "function"
    },
    {
      "inputs": [
        {
          "internalType": "bytes4",
          "name": "interfaceId",
          "type": "bytes4"
        }
      ],
      "name": "supportsInterface",
      "outputs": [
        {
          "internalType": "bool",
          "name": "",
          "type": "bool"
        }
      ],
      "stateMutability": "view",
      "type": "function"
    },
    {
      "inputs": [],
      "name": "symbol",
      "outputs": [
        {
          "internalType": "string",
          "name": "",
          "type": "string"
        }
      ],
      "stateMutability": "view",
      "type": "function"
    },
    {
      "inputs": [],
      "name": "totalSupply",
      "outputs": [
        {
          "internalType": "uint256",
          "name": "",
          "type": "uint256"
        }
      ],
      "stateMutability": "view",
      "type": "function"
    },
    {
      "inputs": [
        {
          "internalType": "address",
          "name": "newOwner",
          "type": "address"
        }
      ],
      "name": "transferOwnership",
      "outputs": [],
      "stateMutability": "nonpayable",
      "type": "function"
    },
    {
      "inputs": [
        {
          "internalType": "uint256",
          "name": "",
          "type": "uint256"
        }
      ],
      "name": "uri",
      "outputs": [
        {
          "internalType": "string",
          "name": "",
          "type": "string"
        }
      ],
      "stateMutability": "view",
      "type": "function"
    }
  ],
  "transactionHash": "0x2a872c74da10e417d22baf15ac6d155b749528f516c112c6ed4853eb162fe124",
  "args": [],
  "numDeployments": 1,
  "solcInputHash": "fcfada35e4e9cbcaf5cbe71240d9a125",
  "bytecode": "0x60c0604052601360808190527f4b4e53322e3020416e6e6f756e63656d656e740000000000000000000000000060a09081526200004091600491906200012a565b506040805180820190915260068082526504b4e53322e360d41b602090920191825262000070916005916200012a565b50611a0a60065560006007553480156200008957600080fd5b5060405180608001604052806050815260200162001c9960509139620000af33620000c1565b620000ba8162000111565b506200020d565b600080546001600160a01b038381166001600160a01b0319831681178455604051919092169283917f8be0079c531659141344cd1fd0a4f28419497f9722a3daafe3b4186f6b6457e09190a35050565b8051620001269060039060208401906200012a565b5050565b8280546200013890620001d0565b90600052602060002090601f0160209004810192826200015c5760008555620001a7565b82601f106200017757805160ff1916838001178555620001a7565b82800160010185558215620001a7579182015b82811115620001a75782518255916020019190600101906200018a565b50620001b5929150620001b9565b5090565b5b80821115620001b55760008155600101620001ba565b600181811c90821680620001e557607f821691505b602082108114156200020757634e487b7160e01b600052602260045260246000fd5b50919050565b611a7c806200021d6000396000f3fe608060405234801561001057600080fd5b506004361061010a5760003560e01c80636e1bd323116100a257806395d89b411161007157806395d89b4114610210578063a22cb46514610218578063e985e9c51461022b578063f242432a14610267578063f2fde38b1461027a57600080fd5b80636e1bd323146101d1578063715018a6146101da578063729ad39e146101e25780638da5cb5b146101f557600080fd5b806318160ddd116100de57806318160ddd146101805780632eb2c2d6146101895780634e1273f41461019e57806355f804b3146101be57600080fd5b8062fdd58e1461010f57806301ffc9a71461013557806306fdde03146101585780630e89341c1461016d575b600080fd5b61012261011d366004611419565b61028d565b6040519081526020015b60405180910390f35b61014861014336600461157d565b610326565b604051901515815260200161012c565b610160610378565b60405161012c9190611784565b61016061017b366004611603565b61040a565b61012260075481565b61019c6101973660046112d6565b61049e565b005b6101b16101ac3660046114b2565b610535565b60405161012c9190611743565b61019c6101cc3660046115b5565b610697565b61012260065481565b61019c6106cd565b61019c6101f0366004611442565b610703565b6000546040516001600160a01b03909116815260200161012c565b6101606107ba565b61019c6102263660046113df565b6107c9565b6101486102393660046112a4565b6001600160a01b03918216600090815260026020908152604080832093909416825291909152205460ff1690565b61019c61027536600461137c565b6108a0565b61019c61028836600461128a565b610927565b60006001600160a01b0383166102fe5760405162461bcd60e51b815260206004820152602b60248201527f455243313135353a2062616c616e636520717565727920666f7220746865207a60448201526a65726f206164647265737360a81b60648201526084015b60405180910390fd5b5060009081526001602090815260408083206001600160a01b03949094168352929052205490565b60006001600160e01b03198216636cdb3d1360e11b148061035757506001600160e01b031982166303a24d0760e21b145b8061037257506301ffc9a760e01b6001600160e01b03198316145b92915050565b606060048054610387906118df565b80601f01602080910402602001604051908101604052809291908181526020018280546103b3906118df565b80156104005780601f106103d557610100808354040283529160200191610400565b820191906000526020600020905b8154815290600101906020018083116103e357829003601f168201915b5050505050905090565b606060038054610419906118df565b80601f0160208091040260200160405190810160405280929190818152602001828054610445906118df565b80156104925780601f1061046757610100808354040283529160200191610492565b820191906000526020600020905b81548152906001019060200180831161047557829003601f168201915b50505050509050919050565b6001600160a01b0385163314806104ba57506104ba8533610239565b6105215760405162461bcd60e51b815260206004820152603260248201527f455243313135353a207472616e736665722063616c6c6572206973206e6f74206044820152711bdddb995c881b9bdc88185c1c1c9bdd995960721b60648201526084016102f5565b61052e85858585856109bf565b5050505050565b6060815183511461059a5760405162461bcd60e51b815260206004820152602960248201527f455243313135353a206163636f756e747320616e6420696473206c656e677468604482015268040dad2e6dac2e8c6d60bb1b60648201526084016102f5565b6000835167ffffffffffffffff8111156105c457634e487b7160e01b600052604160045260246000fd5b6040519080825280602002602001820160405280156105ed578160200160208202803683370190505b50905060005b845181101561068f5761065485828151811061061f57634e487b7160e01b600052603260045260246000fd5b602002602001015185838151811061064757634e487b7160e01b600052603260045260246000fd5b602002602001015161028d565b82828151811061067457634e487b7160e01b600052603260045260246000fd5b602090810291909101015261068881611947565b90506105f3565b509392505050565b6000546001600160a01b031633146106c15760405162461bcd60e51b81526004016102f59061186e565b6106ca81610bbb565b50565b6000546001600160a01b031633146106f75760405162461bcd60e51b81526004016102f59061186e565b6107016000610bd2565b565b6000546001600160a01b0316331461072d5760405162461bcd60e51b81526004016102f59061186e565b8060005b818110156107b45761078984848381811061075c57634e487b7160e01b600052603260045260246000fd5b9050602002016020810190610771919061128a565b60018060405180602001604052806000815250610c22565b60016007600082825461079c91906118c7565b909155508190506107ac81611947565b915050610731565b50505050565b606060058054610387906118df565b336001600160a01b03831614156108345760405162461bcd60e51b815260206004820152602960248201527f455243313135353a2073657474696e6720617070726f76616c20737461747573604482015268103337b91039b2b63360b91b60648201526084016102f5565b3360008181526002602090815260408083206001600160a01b03871680855290835292819020805460ff191686151590811790915590519081529192917f17307eab39ab6107e8899845ad3d59bd9653f200f220920489ca2b5937696c31910160405180910390a35050565b6001600160a01b0385163314806108bc57506108bc8533610239565b61091a5760405162461bcd60e51b815260206004820152602960248201527f455243313135353a2063616c6c6572206973206e6f74206f776e6572206e6f7260448201526808185c1c1c9bdd995960ba1b60648201526084016102f5565b61052e8585858585610d2e565b6000546001600160a01b031633146109515760405162461bcd60e51b81526004016102f59061186e565b6001600160a01b0381166109b65760405162461bcd60e51b815260206004820152602660248201527f4f776e61626c653a206e6577206f776e657220697320746865207a65726f206160448201526564647265737360d01b60648201526084016102f5565b6106ca81610bd2565b8151835114610a215760405162461bcd60e51b815260206004820152602860248201527f455243313135353a2069647320616e6420616d6f756e7473206c656e677468206044820152670dad2e6dac2e8c6d60c31b60648201526084016102f5565b6001600160a01b038416610a475760405162461bcd60e51b81526004016102f5906117df565b3360005b8451811015610b4d576000858281518110610a7657634e487b7160e01b600052603260045260246000fd5b602002602001015190506000858381518110610aa257634e487b7160e01b600052603260045260246000fd5b60209081029190910181015160008481526001835260408082206001600160a01b038e168352909352919091205490915081811015610af35760405162461bcd60e51b81526004016102f590611824565b60008381526001602090815260408083206001600160a01b038e8116855292528083208585039055908b16825281208054849290610b329084906118c7565b9250508190555050505080610b4690611947565b9050610a4b565b50846001600160a01b0316866001600160a01b0316826001600160a01b03167f4a39dc06d4c0dbc64b70af90fd698a233a518aa5d07e595d983b8c0526c8f7fb8787604051610b9d929190611756565b60405180910390a4610bb3818787878787610e4f565b505050505050565b8051610bce9060039060208401906110dd565b5050565b600080546001600160a01b038381166001600160a01b0319831681178455604051919092169283917f8be0079c531659141344cd1fd0a4f28419497f9722a3daafe3b4186f6b6457e09190a35050565b6001600160a01b038416610c825760405162461bcd60e51b815260206004820152602160248201527f455243313135353a206d696e7420746f20746865207a65726f206164647265736044820152607360f81b60648201526084016102f5565b33610c9c81600087610c9388610fba565b61052e88610fba565b60008481526001602090815260408083206001600160a01b038916845290915281208054859290610cce9084906118c7565b909155505060408051858152602081018590526001600160a01b0380881692600092918516917fc3d58168c5ae7397731d063d5bbf3d657854427343f4c083240f7aacaa2d0f62910160405180910390a461052e81600087878787611013565b6001600160a01b038416610d545760405162461bcd60e51b81526004016102f5906117df565b33610d64818787610c9388610fba565b60008481526001602090815260408083206001600160a01b038a16845290915290205483811015610da75760405162461bcd60e51b81526004016102f590611824565b60008581526001602090815260408083206001600160a01b038b8116855292528083208785039055908816825281208054869290610de69084906118c7565b909155505060408051868152602081018690526001600160a01b03808916928a821692918616917fc3d58168c5ae7397731d063d5bbf3d657854427343f4c083240f7aacaa2d0f62910160405180910390a4610e46828888888888611013565b50505050505050565b6001600160a01b0384163b15610bb35760405163bc197c8160e01b81526001600160a01b0385169063bc197c8190610e9390899089908890889088906004016116a0565b602060405180830381600087803b158015610ead57600080fd5b505af1925050508015610edd575060408051601f3d908101601f19168201909252610eda91810190611599565b60015b610f8a57610ee961198e565b806308c379a01415610f235750610efe6119a6565b80610f095750610f25565b8060405162461bcd60e51b81526004016102f59190611784565b505b60405162461bcd60e51b815260206004820152603460248201527f455243313135353a207472616e7366657220746f206e6f6e20455243313135356044820152732932b1b2b4bb32b91034b6b83632b6b2b73a32b960611b60648201526084016102f5565b6001600160e01b0319811663bc197c8160e01b14610e465760405162461bcd60e51b81526004016102f590611797565b6040805160018082528183019092526060916000919060208083019080368337019050509050828160008151811061100257634e487b7160e01b600052603260045260246000fd5b602090810291909101015292915050565b6001600160a01b0384163b15610bb35760405163f23a6e6160e01b81526001600160a01b0385169063f23a6e619061105790899089908890889088906004016116fe565b602060405180830381600087803b15801561107157600080fd5b505af19250505080156110a1575060408051601f3d908101601f1916820190925261109e91810190611599565b60015b6110ad57610ee961198e565b6001600160e01b0319811663f23a6e6160e01b14610e465760405162461bcd60e51b81526004016102f590611797565b8280546110e9906118df565b90600052602060002090601f01602090048101928261110b5760008555611151565b82601f1061112457805160ff1916838001178555611151565b82800160010185558215611151579182015b82811115611151578251825591602001919060010190611136565b5061115d929150611161565b5090565b5b8082111561115d5760008155600101611162565b600067ffffffffffffffff83111561119057611190611978565b6040516111a7601f8501601f19166020018261191a565b8091508381528484840111156111bc57600080fd5b83836020830137600060208583010152509392505050565b80356001600160a01b03811681146111eb57600080fd5b919050565b600082601f830112611200578081fd5b8135602061120d826118a3565b60405161121a828261191a565b8381528281019150858301600585901b87018401881015611239578586fd5b855b858110156112575781358452928401929084019060010161123b565b5090979650505050505050565b600082601f830112611274578081fd5b61128383833560208501611176565b9392505050565b60006020828403121561129b578081fd5b611283826111d4565b600080604083850312156112b6578081fd5b6112bf836111d4565b91506112cd602084016111d4565b90509250929050565b600080600080600060a086880312156112ed578081fd5b6112f6866111d4565b9450611304602087016111d4565b9350604086013567ffffffffffffffff80821115611320578283fd5b61132c89838a016111f0565b94506060880135915080821115611341578283fd5b61134d89838a016111f0565b93506080880135915080821115611362578283fd5b5061136f88828901611264565b9150509295509295909350565b600080600080600060a08688031215611393578081fd5b61139c866111d4565b94506113aa602087016111d4565b93506040860135925060608601359150608086013567ffffffffffffffff8111156113d3578182fd5b61136f88828901611264565b600080604083850312156113f1578182fd5b6113fa836111d4565b91506020830135801515811461140e578182fd5b809150509250929050565b6000806040838503121561142b578182fd5b611434836111d4565b946020939093013593505050565b60008060208385031215611454578182fd5b823567ffffffffffffffff8082111561146b578384fd5b818501915085601f83011261147e578384fd5b81358181111561148c578485fd5b8660208260051b85010111156114a0578485fd5b60209290920196919550909350505050565b600080604083850312156114c4578182fd5b823567ffffffffffffffff808211156114db578384fd5b818501915085601f8301126114ee578384fd5b813560206114fb826118a3565b604051611508828261191a565b8381528281019150858301600585901b870184018b1015611527578889fd5b8896505b848710156115505761153c816111d4565b83526001969096019591830191830161152b565b5096505086013592505080821115611566578283fd5b50611573858286016111f0565b9150509250929050565b60006020828403121561158e578081fd5b813561128381611a30565b6000602082840312156115aa578081fd5b815161128381611a30565b6000602082840312156115c6578081fd5b813567ffffffffffffffff8111156115dc578182fd5b8201601f810184136115ec578182fd5b6115fb84823560208401611176565b949350505050565b600060208284031215611614578081fd5b5035919050565b6000815180845260208085019450808401835b8381101561164a5781518752958201959082019060010161162e565b509495945050505050565b60008151808452815b8181101561167a5760208185018101518683018201520161165e565b8181111561168b5782602083870101525b50601f01601f19169290920160200192915050565b6001600160a01b0386811682528516602082015260a0604082018190526000906116cc9083018661161b565b82810360608401526116de818661161b565b905082810360808401526116f28185611655565b98975050505050505050565b6001600160a01b03868116825285166020820152604081018490526060810183905260a06080820181905260009061173890830184611655565b979650505050505050565b602081526000611283602083018461161b565b604081526000611769604083018561161b565b828103602084015261177b818561161b565b95945050505050565b6020815260006112836020830184611655565b60208082526028908201527f455243313135353a204552433131353552656365697665722072656a656374656040820152676420746f6b656e7360c01b606082015260800190565b60208082526025908201527f455243313135353a207472616e7366657220746f20746865207a65726f206164604082015264647265737360d81b606082015260800190565b6020808252602a908201527f455243313135353a20696e73756666696369656e742062616c616e636520666f60408201526939103a3930b739b332b960b11b606082015260800190565b6020808252818101527f4f776e61626c653a2063616c6c6572206973206e6f7420746865206f776e6572604082015260600190565b600067ffffffffffffffff8211156118bd576118bd611978565b5060051b60200190565b600082198211156118da576118da611962565b500190565b600181811c908216806118f357607f821691505b6020821081141561191457634e487b7160e01b600052602260045260246000fd5b50919050565b601f8201601f1916810167ffffffffffffffff8111828210171561194057611940611978565b6040525050565b600060001982141561195b5761195b611962565b5060010190565b634e487b7160e01b600052601160045260246000fd5b634e487b7160e01b600052604160045260246000fd5b600060033d11156119a357600481823e5160e01c5b90565b600060443d10156119b45790565b6040516003193d81016004833e81513d67ffffffffffffffff81602484011181841117156119e457505050505090565b82850191508151818111156119fc5750505050505090565b843d8701016020828501011115611a165750505050505090565b611a256020828601018761191a565b509095945050505050565b6001600160e01b0319811681146106ca57600080fdfea264697066735822122084a7fd21e9da42ee61a8a1e85ce1b7733ded8998b5a3b0c1417f34086ba2392b64736f6c6343000804003368747470733a2f2f676174657761792e70696e6174612e636c6f75642f697066732f516d5271504b33775954675875716f5543354234755239584b6d3143414a6d444859653541775467693651753561",
  "devdoc": {
    "kind": "dev",
    "methods": {
      "balanceOf(address,uint256)": {
        "details": "See {IERC1155-balanceOf}. Requirements: - `account` cannot be the zero address."
      },
      "balanceOfBatch(address[],uint256[])": {
        "details": "See {IERC1155-balanceOfBatch}. Requirements: - `accounts` and `ids` must have the same length."
      },
      "isApprovedForAll(address,address)": {
        "details": "See {IERC1155-isApprovedForAll}."
      },
      "owner()": {
        "details": "Returns the address of the current owner."
      },
      "renounceOwnership()": {
        "details": "Leaves the contract without owner. It will not be possible to call `onlyOwner` functions anymore. Can only be called by the current owner. NOTE: Renouncing ownership will leave the contract without an owner, thereby removing any functionality that is only available to the owner."
      },
      "safeBatchTransferFrom(address,address,uint256[],uint256[],bytes)": {
        "details": "See {IERC1155-safeBatchTransferFrom}."
      },
      "safeTransferFrom(address,address,uint256,uint256,bytes)": {
        "details": "See {IERC1155-safeTransferFrom}."
      },
      "setApprovalForAll(address,bool)": {
        "details": "See {IERC1155-setApprovalForAll}."
      },
      "supportsInterface(bytes4)": {
        "details": "See {IERC165-supportsInterface}."
      },
      "transferOwnership(address)": {
        "details": "Transfers ownership of the contract to a new account (`newOwner`). Can only be called by the current owner."
      },
      "uri(uint256)": {
        "details": "See {IERC1155MetadataURI-uri}. This implementation returns the same URI for *all* token types. It relies on the token type ID substitution mechanism https://eips.ethereum.org/EIPS/eip-1155#metadata[defined in the EIP]. Clients calling this function must replace the `\\{id\\}` substring with the actual token type ID."
      }
    },
    "version": 1
  },
  "userdoc": {
    "kind": "user",
    "methods": {},
    "version": 1
  },
  "storageLayout": {
    "storage": [
      {
        "astId": 7,
        "contract": "contracts/KNSAnnouncement.sol:KNSAnnouncement",
        "label": "_owner",
        "offset": 0,
        "slot": "0",
        "type": "t_address"
      },
      {
        "astId": 129,
        "contract": "contracts/KNSAnnouncement.sol:KNSAnnouncement",
        "label": "_balances",
        "offset": 0,
        "slot": "1",
        "type": "t_mapping(t_uint256,t_mapping(t_address,t_uint256))"
      },
      {
        "astId": 135,
        "contract": "contracts/KNSAnnouncement.sol:KNSAnnouncement",
        "label": "_operatorApprovals",
        "offset": 0,
        "slot": "2",
        "type": "t_mapping(t_address,t_mapping(t_address,t_bool))"
      },
      {
        "astId": 137,
        "contract": "contracts/KNSAnnouncement.sol:KNSAnnouncement",
        "label": "_uri",
        "offset": 0,
        "slot": "3",
        "type": "t_string_storage"
      },
      {
        "astId": 1728,
        "contract": "contracts/KNSAnnouncement.sol:KNSAnnouncement",
        "label": "_name",
        "offset": 0,
        "slot": "4",
        "type": "t_string_storage"
      },
      {
        "astId": 1731,
        "contract": "contracts/KNSAnnouncement.sol:KNSAnnouncement",
        "label": "_symbol",
        "offset": 0,
        "slot": "5",
        "type": "t_string_storage"
      },
      {
        "astId": 1734,
        "contract": "contracts/KNSAnnouncement.sol:KNSAnnouncement",
        "label": "MAX_TOKEN",
        "offset": 0,
        "slot": "6",
        "type": "t_uint256"
      },
      {
        "astId": 1737,
        "contract": "contracts/KNSAnnouncement.sol:KNSAnnouncement",
        "label": "totalSupply",
        "offset": 0,
        "slot": "7",
        "type": "t_uint256"
      }
    ],
    "types": {
      "t_address": {
        "encoding": "inplace",
        "label": "address",
        "numberOfBytes": "20"
      },
      "t_bool": {
        "encoding": "inplace",
        "label": "bool",
        "numberOfBytes": "1"
      },
      "t_mapping(t_address,t_bool)": {
        "encoding": "mapping",
        "key": "t_address",
        "label": "mapping(address => bool)",
        "numberOfBytes": "32",
        "value": "t_bool"
      },
      "t_mapping(t_address,t_mapping(t_address,t_bool))": {
        "encoding": "mapping",
        "key": "t_address",
        "label": "mapping(address => mapping(address => bool))",
        "numberOfBytes": "32",
        "value": "t_mapping(t_address,t_bool)"
      },
      "t_mapping(t_address,t_uint256)": {
        "encoding": "mapping",
        "key": "t_address",
        "label": "mapping(address => uint256)",
        "numberOfBytes": "32",
        "value": "t_uint256"
      },
      "t_mapping(t_uint256,t_mapping(t_address,t_uint256))": {
        "encoding": "mapping",
        "key": "t_uint256",
        "label": "mapping(uint256 => mapping(address => uint256))",
        "numberOfBytes": "32",
        "value": "t_mapping(t_address,t_uint256)"
      },
      "t_string_storage": {
        "encoding": "bytes",
        "label": "string",
        "numberOfBytes": "32"
      },
      "t_uint256": {
        "encoding": "inplace",
        "label": "uint256",
        "numberOfBytes": "32"
      }
    }
  }
}